:020000040800F2
:100000000050002029190008CD180008D318000856
:10001000D9180008DF180008E518000800000000E3
:10002000000000000000000000000000EB180008C5
:10003000F718000800000000031900080F19000855
:100040007119000871190008711900087119000868
:100050007119000871190008711900087119000858
:100060007119000871190008711900087119000848
:100070007119000871190008711900087119000838
:100080007119000871190008711900087119000828
:100090007119000871190008711900087119000818
:1000A0007119000871190008711900087119000808
:1000B00071190008711900087119000871190008F8
:1000C00071190008711900087119000871190008E8
:1000D00071190008711900087119000871190008D8
:1000E000711900087119000871190008000000005A
:1000F0000000000000000000000000000000000000
:0C01000000000000000000005FF808F1A3
:1001100010B5054C237833B9044B13B10448AFF341
:1001200000800123237010BD0001002000000000AA
:100130001C3F000808B5034B1BB103490348AFF34C
:10014000008008BD00000000040100201C3F0008E2
:1001500081F0004102E000BF83F0004330B54FEA78
:1001600041044FEA430594EA050F08BF90EA020FE5
:100170001FBF54EA000C55EA020C7FEA645C7FEA78
:10018000655C00F0E2804FEA5454D4EB5555B8BF9B
:100190006D420CDD2C4480EA020281EA030382EA0C
:1001A000000083EA010180EA020281EA0303362D9E
:1001B00088BF30BD11F0004F4FEA01314FF4801C71
:1001C0004CEA113102D0404261EB410113F0004F83
:1001D0004FEA03334CEA133302D0524263EB43033A
:1001E00094EA050F00F0A780A4F10104D5F1200ED8
:1001F0000DDB02FA0EFC22FA05F2801841F1000133
:1002000003FA0EF2801843FA05F359410EE0A5F106
:1002100020050EF1200E012A03FA0EFC28BF4CF037
:10022000020C43FA05F3C01851EBE37101F00045ED
:1002300007D54FF0000EDCF1000C7EEB00006EEBFA
:100240000101B1F5801F1BD3B1F5001F0CD3490884
:100250005FEA30004FEA3C0C04F101044FEA4452DB
:1002600012F5800F80F09A80BCF1004F08BF5FEA62
:10027000500C50F1000041EB045141EA050130BD42
:100280005FEA4C0C404141EB0101013C28BFB1F554
:10029000801FE9D291F0000F04BF01460020B1FA9F
:1002A00081F308BF2033A3F10B03B3F120020CDA72
:1002B0000C3208DD02F1140CC2F10C0201FA0CF050
:1002C00021FA02F10CE002F11402D8BFC2F1200CB5
:1002D00001FA02F120FA0CFCDCBF41EA0C0190406B
:1002E000E41AA2BF01EB0451294330BD6FEA0404B4
:1002F0001F3C1CDA0C340EDC04F11404C4F120029F
:1003000020FA04F001FA02F340EA030021FA04F3B0
:1003100045EA030130BDC4F10C04C4F1200220FA07
:1003200002F001FA04F340EA0300294630BD21FA45
:1003300004F0294630BD94F0000F83F4801306BF0B
:1003400081F480110134013D4EE77FEA645C18BFFF
:100350007FEA655C29D094EA050F08BF90EA020F96
:1003600005D054EA000C04BF1946104630BD91EA8E
:10037000030F1EBF0021002030BD5FEA545C05D191
:100380004000494128BF41F0004130BD14F58004D0
:100390003CBF01F5801130BD01F0004545F0FE4144
:1003A00041F470014FF0000030BD7FEA645C1ABF79
:1003B000194610467FEA655C1CBF0B46024650EAB0
:1003C000013406BF52EA033591EA030F41F40021DC
:1003D00030BD00BF90F0000F04BF0021704730B562
:1003E0004FF4806404F132044FF000054FF0000137
:1003F00050E700BF90F0000F04BF0021704730B5F8
:100400004FF4806404F1320410F0004548BF4042CC
:100410004FF000013EE700BF42004FEAE2014FEA21
:1004200031014FEA02701FBF12F07F4393F07F4FFC
:1004300081F06051704732F07F4208BF704793F0FF
:100440007F4F04BF41F40021704730B54FF4607412
:1004500001F0004521F000411CE700BF50EA010215
:1004600008BF704730B54FF000050AE050EA0102BE
:1004700008BF704730B511F0004502D5404261EB2E
:1004800041014FF4806404F132045FEA915C3FF46F
:10049000D8AE4FF003025FEADC0C18BF03325FEA0C
:1004A000DC0C18BF033202EBDC02C2F1200300FABD
:1004B00003FC20FA02F001FA03FE40EA0E0021FAE2
:1004C00002F11444BDE600BF70B54FF0FF0C4CF4D0
:1004D000E06C1CEA11541DBF1CEA135594EA0C0F82
:1004E00095EA0C0F00F0DEF82C4481EA030621EABD
:1004F0004C5123EA4C5350EA013518BF52EA0335F8
:1005000041F4801143F4801338D0A0FB02CE4FF0A9
:100510000005E1FB02E506F00042E0FB03E54FF0D9
:100520000006E1FB03569CF0000F18BF4EF0010ED1
:10053000A4F1FF04B6F5007F64F5407404D25FEACD
:100540004E0E6D4146EB060642EAC62141EA555180
:100550004FEAC52040EA5E504FEACE2EB4F1FD0CC2
:1005600088BFBCF5E06F1ED8BEF1004F08BF5FEA40
:10057000500E50F1000041EB045170BD06F00046F2
:1005800046EA010140EA020081EA0301B4EB5C049F
:10059000C2BFD4EB0C0541EA045170BD41F4801197
:1005A0004FF0000E013C00F3AB8014F1360FDEBFBC
:1005B000002001F0004170BDC4F10004203C35DA98
:1005C0000C341BDC04F11404C4F1200500FA05F31B
:1005D00020FA04F001FA05F240EA020001F00042BC
:1005E00021F0004110EBD37021FA04F642EB060132
:1005F0005EEA430E08BF20EAD37070BDC4F10C045C
:10060000C4F1200500FA04F320FA05F001FA04F21F
:1006100040EA020001F0004110EBD37041F100010B
:100620005EEA430E08BF20EAD37070BDC4F1200516
:1006300000FA05F24EEA020E20FA04F301FA05F27E
:1006400043EA020321FA04F001F0004121FA04F226
:1006500020EA020000EBD3705EEA430E08BF20EAF6
:10066000D37070BD94F0000F0FD101F00046400030
:1006700041EB010111F4801F08BF013CF7D041EAB2
:10068000060195F0000F18BF704703F000465200B6
:1006900043EB030313F4801F08BF013DF7D043EA87
:1006A0000603704794EA0C0F0CEA135518BF95EA3D
:1006B0000C0F0CD050EA410618BF52EA4306D1D1C4
:1006C00081EA030101F000414FF0000070BD50EAE3
:1006D000410606BF1046194652EA430619D094EA6D
:1006E0000C0F02D150EA013613D195EA0C0F05D157
:1006F00052EA03361CBF104619460AD181EA0301AB
:1007000001F0004141F0FE4141F470014FF0000062
:1007100070BD41F0FE4141F4780170BD70B54FF0FD
:10072000FF0C4CF4E06C1CEA11541DBF1CEA13557D
:1007300094EA0C0F95EA0C0F00F0A7F8A4EB05045F
:1007400081EA030E52EA03354FEA013100F0888056
:100750004FEA03334FF0805545EA131343EA12631F
:100760004FEA022245EA111545EA10654FEA0026D4
:100770000EF000419D4208BF964244F1FD0404F58D
:10078000407402D25B084FEA3202B61A65EB0305E9
:100790005B084FEA32024FF480104FF4002CB6EBA6
:1007A000020E75EB030E22BFB61A754640EA0C0026
:1007B0005B084FEA3202B6EB020E75EB030E22BF66
:1007C000B61A754640EA5C005B084FEA3202B6EBA7
:1007D000020E75EB030E22BFB61A754640EA9C0066
:1007E0005B084FEA3202B6EB020E75EB030E22BF36
:1007F000B61A754640EADC0055EA060E18D04FEAF4
:10080000051545EA16754FEA06164FEAC30343EA93
:1008100052734FEAC2025FEA1C1CC0D111F4801F60
:100820000BD141EA00014FF000004FF0004CB6E759
:1008300011F4801F04BF01430020B4F1FD0C88BFF8
:10084000BCF5E06F3FF6AFAEB5EB030C04BFB6EB03
:10085000020C5FEA500C50F1000041EB045170BDF6
:100860000EF0004E4EEA113114EB5C04C2BFD4EB23
:100870000C0541EA045170BD41F480114FF0000EA7
:10088000013C90E645EA060E8DE60CEA135594EA23
:100890000C0F08BF95EA0C0F3FF43BAF94EA0C0F26
:1008A0000AD150EA01347FF434AF95EA0C0F7FF49B
:1008B00025AF104619462CE795EA0C0F06D152EAEF
:1008C00003353FF4FDAE1046194622E750EA4106D3
:1008D00018BF52EA43067FF4C5AE50EA41047FF4E4
:1008E0000DAF52EA43057FF4EBAE12E74FF0FF3C49
:1008F00006E000BF4FF0010C02E000BF4FF0010C1A
:100900004DF804CD4FEA410C7FEA6C5C4FEA430C92
:1009100018BF7FEA6C5C1BD001B050EA410C0CBFE1
:1009200052EA430C91EA030F02BF90EA020F002043
:10093000704710F1000F91EA030F58BF994208BFAA
:1009400090422CBFD8176FEAE37040F00100704767
:100950004FEA410C7FEA6C5C02D150EA013C07D1BE
:100960004FEA430C7FEA6C5CD6D152EA033CD3D009
:100970005DF8040B704700BF8446104662468C4603
:100980001946634600E000BF01B5FFF7B7FF002836
:1009900048BF10F1000F01BD4DF808EDFFF7F4FF5F
:1009A0000CBF012000205DF808FB00BF4DF808EDEA
:1009B000FFF7EAFF34BF012000205DF808FB00BF0D
:1009C0004DF808EDFFF7E0FF94BF012000205DF82F
:1009D00008FB00BF4DF808EDFFF7CEFF94BF0120E4
:1009E00000205DF808FB00BF4DF808EDFFF7C4FFDD
:1009F00034BF012000205DF808FB00BF4FEA410C26
:100A00007FEA6C5C02D150EA013C0AD14FEA430C08
:100A10007FEA6C5C02D152EA033C02D14FF0000045
:100A200070474FF0010070474FEA410212F5001283
:100A300015D211D56FF47873B3EB625212D94FEA25
:100A4000C12343F0004343EA505311F0004F23FA0F
:100A500002F018BF404270474FF00000704750EA64
:100A6000013005D111F0004008BF6FF00040704721
:100A70004FF00000704700BF80F0004002E000BF70
:100A800081F0004142001FBF5FEA410392EA030F79
:100A90007FEA226C7FEA236C6AD04FEA1262D2EBC3
:100AA0001363C1BFD218414048404140B8BF5B42C8
:100AB000192B88BF704710F0004F40F4000020F061
:100AC0007F4018BF404211F0004F41F4000121F077
:100AD0007F4118BF494292EA030F3FD0A2F10102C1
:100AE00041FA03FC10EB0C00C3F1200301FA03F1FF
:100AF00000F0004302D5494260EB4000B0F5000F22
:100B000013D3B0F1807F06D340084FEA310102F1E0
:100B10000102FE2A51D2B1F1004F40EBC25008BF92
:100B200020F0010040EA03007047490040EB00005C
:100B3000013A28BFB0F5000FEDD2B0FA80FCACF15D
:100B4000080CB2EB0C0200FA0CF0AABF00EBC2508A
:100B500052421843BCBFD0401843704792F0000F78
:100B600081F4000106BF80F400000132013BB5E7CB
:100B70004FEA41037FEA226C18BF7FEA236C21D041
:100B800092EA030F04D092F0000F08BF08467047A6
:100B900090EA010F1CBF0020704712F07F4F04D174
:100BA000400028BF40F00040704712F100723CBF87
:100BB00000F50000704700F0004343F0FE4040F4B1
:100BC000000070477FEA226216BF08467FEA23636F
:100BD0000146420206BF5FEA412390EA010F40F45A
:100BE000800070474FF0000304E000BF10F00043A6
:100BF00048BF40425FEA000C08BF704743F096438D
:100C000001464FF000001CE050EA010208BF7047A7
:100C10004FF000030AE000BF50EA010208BF70472E
:100C200011F0004302D5404261EB41015FEA010C43
:100C300002BF84460146002043F0B64308BFA3F13B
:100C40008053A3F50003BCFA8CF2083AA3EBC2531D
:100C500010DB01FA02FC634400FA02FCC2F120023C
:100C6000BCF1004F20FA02F243EB020008BF20F073
:100C70000100704702F1200201FA02FCC2F12002D9
:100C800050EA4C0021FA02F243EB020008BF20EACE
:100C9000DC7070474FF0FF0C1CEAD0521EBF1CEAFC
:100CA000D15392EA0C0F93EA0C0F6FD01A4480EAEA
:100CB000010C400218BF5FEA41211ED04FF00063D3
:100CC00043EA501043EA5111A0FB01310CF00040FF
:100CD000B1F5000F3EBF490041EAD3715B0040EA25
:100CE000010062F17F02FD2A1DD8B3F1004F40EBF5
:100CF000C25008BF20F00100704790F0000F0CF0C8
:100D0000004C08BF49024CEA502040EA51207F3A8B
:100D1000C2BFD2F1FF0340EAC250704740F4000066
:100D20004FF00003013A5DDC12F1190FDCBF00F057
:100D300000407047C2F10002410021FA02F1C2F105
:100D4000200200FA02FC5FEA310040F1000053EAA1
:100D50004C0308BF20EADC70704792F0000F00F0EF
:100D6000004C02BF400010F4000F013AF9D040EAF5
:100D70000C0093F0000F01F0004C02BF490011F489
:100D8000000F013BF9D041EA0C018FE70CEAD15387
:100D900092EA0C0F18BF93EA0C0F0AD030F0004C07
:100DA00018BF31F0004CD8D180EA010000F00040BB
:100DB000704790F0000F17BF90F0004F084691F079
:100DC000000F91F0004F14D092EA0C0F01D14202B3
:100DD0000FD193EA0C0F03D14B0218BF084608D17C
:100DE00080EA010000F0004040F0FE4040F40000C6
:100DF000704740F0FE4040F4400070474FF0FF0C59
:100E00001CEAD0521EBF1CEAD15392EA0C0F93EA9F
:100E10000C0F69D0A2EB030280EA010C49024FEAF1
:100E2000402037D04FF0805343EA111143EA1013AA
:100E30000CF000408B4238BF5B0042F17D024FF462
:100E4000000C8B4224BF5B1A40EA0C00B3EB510F3D
:100E500024BFA3EB510340EA5C00B3EB910F24BF26
:100E6000A3EB910340EA9C00B3EBD10F24BFA3EBAB
:100E7000D10340EADC001B0118BF5FEA1C1CE0D173
:100E8000FD2A3FF650AF8B4240EBC25008BF20F026
:100E9000010070470CF0004C4CEA50207F32C2BF7A
:100EA000D2F1FF0340EAC250704740F400004FF017
:100EB0000003013A37E792F0000F00F0004C02BF48
:100EC000400010F4000F013AF9D040EA0C0093F012
:100ED000000F01F0004C02BF490011F4000F013B6C
:100EE000F9D041EA0C0195E70CEAD15392EA0C0FD4
:100EF00008D142027FF47DAF93EA0C0F7FF470AF0C
:100F0000084676E793EA0C0F04D14B023FF44CAF4E
:100F100008466EE730F0004C18BF31F0004CCAD1E3
:100F200030F000427FF45CAF31F000437FF43CAF1F
:100F30005FE700BFB0B592B000AFF860C7E900232B
:100F4000FB68D3E90823D7E91601FFF705F9024644
:100F50000B46C7E91023FB68D3E90645D7E9102300
:100F6000D7E91801FFF7B0FA02460B46204629469A
:100F7000FFF7F4F802460B46F968C1E90623FB685F
:100F8000D3E90A45FB68D3E91001D7E91823FFF735
:100F90009BFA02460B4610461946FB68D3E90C2320
:100FA000FFF7DAF802460B4610461946FB68D3E90C
:100FB0000E23FFF7D1F802460B4610461946FB6890
:100FC000D3E90023FFF7CAF802460B46104619463C
:100FD000D7E91823FFF778FA02460B462046294640
:100FE000FFF7BCF802460B46F968C1E90A23FB6823
:100FF000D3E90C45FB68D3E91001D7E91823FFF7C3
:1010000063FA02460B4620462946FFF7A5F802463A
:101010000B46F968C1E90C23FB68D3E90E45FB6870
:10102000D3E91001D7E91823FFF74EFA02460B4621
:1010300020462946FFF790F802460B46F968C1E9B9
:101040000E23FB68D3E91045FB68D3E90201D7E919
:101050001823FFF739FA02460B4620462946FFF7C8
:101060007DF802460B46F968C1E91023FB68D3E915
:101070000A01FB68D3E90423FFF770F802460B4628
:10108000C7E90E23FB68D3E90A01D7E90E23FFF76E
:1010900045FB02460B46C7E90423FB68D3E90E0172
:1010A000D7E90E23FFF73AFB02460B46C7E90623B2
:1010B000FB68D3E90623D7E90001FFF74DF80246A4
:1010C0000B46C7E90C23FB68D3E90645D7E90401C1
:1010D000D7E90C23FFF7F8F902460B4620462946CC
:1010E000FFF73CF802460B46F968C1E90623FB68A6
:1010F000D3E90845D7E90601D7E90C23FFF7E4F95E
:1011000002460B4620462946FFF728F802460B46C2
:10111000F968C1E90823FB68D3E90A23C7E90A2370
:10112000FB68D3E90C23C7E90823FB68D3E90A4528
:10113000D7E90401D7E90A23FFF7C6F902460B46AF
:1011400020462946FFF708F802460B46F968C1E930
:101150000A23FB68D3E90C45D7E90401D7E9082342
:10116000FFF7B2F902460B4620462946FEF7F4FF88
:1011700002460B46F968C1E90C23FB68D3E90E452A
:10118000D7E90601D7E90A23FFF79EF902460B4685
:1011900020462946FEF7E0FF02460B46F968C1E902
:1011A0000E23FB68D3E91045D7E90601D7E90823E8
:1011B000FFF78AF902460B4620462946FEF7CCFF88
:1011C00002460B46F968C1E91023FB68D3E9062300
:1011D00010461946FFF728FC034618464837BD4617
:1011E000B0BD000080B586B004AF64230293012334
:1011F0000193FB1D009301237522D021224801F0A9
:10120000E5F8FB79682B39D10023BB716423029385
:1012100001230193BB1D009301236B22D0211A48A7
:1012200000F0DAFF0723BB716423029301230193CB
:10123000BB1D009301231922D021134800F0CCFFDD
:101240000023BB716423029301230193BB1D009310
:1012500001231C22D0210C4800F0BEFF0023BB71EB
:101260006423029301230193BB1D009301231B22DE
:10127000D021054800F0B0FF002300E0012318460C
:101280000837BD4680BD00BF1C01002000000000E3
:101290002DE9B04F94B004AF7860642302930E231D
:1012A000019307F10803009301233B22D0218C48CE
:1012B00001F08CF83B7A1B021AB27B7A1BB2134303
:1012C0001AB27B681A80BB7A1B021AB2FB7A1BB275
:1012D00013431AB27B685A803B7B1B021AB27B7B9A
:1012E0001BB213431AB27B689A80BB7B1B021AB2F3
:1012F000FB7B1BB21343FB863B7C1B021AB27B7C3D
:101300001BB213431AB27B681A84BB7C1B021AB24D
:10131000FB7C1BB213431AB27B685A843B7D1B02D1
:101320001AB27B7D1BB213431AB27B689A847B6826
:10133000B3F900301846FFF75DF84FF00002694B33
:10134000FFF7ECF902460B467968C1E902237B6896
:10135000B3F902301846FFF74DF84FF00002614B29
:10136000FFF7DCF902460B467968C1E904237B6884
:10137000B3F904301846FFF73DF853A3D3E900232F
:10138000FFF7CCF902460B467968C1E90623B7F9A5
:1013900036301846FFF72AFC034653491846FFF734
:1013A0002DFD034651491846FFF76CFB03461A46CC
:1013B0007B681A647B68B3F920301846FFF71AF887
:1013C00043A3D3E90023FFF7A9F902460B46796846
:1013D000C1E90A237B68B3F922301846FFF70AF8FF
:1013E0003BA3D3E90023FFF799F902460B4679683E
:1013F000C1E90C237B68B3F924301846FEF7FAFFE5
:1014000033A3D3E90023FFF789F902460B46796835
:10141000C1E90E2300F006FB0246354B1B68D31AC8
:101420001846FEF7D7FF4FF00002324BFFF776F970
:1014300002460B46C7E90A2300F0F4FA03462C4A99
:1014400013607B68B3F900301A467B68B3F900304B
:1014500003FB02F27B68B3F9043019467B68B3F9E9
:10146000043001FB03F313441846FEF7C3FF0246A2
:101470000B461046194602F0F5F9C7E908014FF08E
:1014800000024FF00003D7E90801FFF785FA034691
:10149000002B31D17B68B3F902301846FEF7AAFF62
:1014A000D7E90823FFF73AF902460B4610461946DA
:1014B00002F0FEF908A3D3E90023FFF705F802467E
:1014C0000B46C7E90E231DE0000000000029CC40B8
:1014D0000000000000606040F8C1631ADCA54C40C9
:1014E0001C0100200000D0400000AA43B81E124298
:1014F0007001002000408F404FF000024FF00003C9
:10150000C7E90E237B68B3F900305B421846FEF74B
:1015100071FF82468B467B68B3F904301846FEF7AC
:1015200069FF02460B465046594602F099F946A318
:10153000D3E90023FEF7C8FF02460B46C7E906239E
:101540004FF00002424BD7E90601FFF72FFA03469E
:10155000002B0AD07B68D3E914014FF000023D4B09
:10156000FFF742FA0346002B14D14FF00002394B2B
:10157000D7E90601FFF738FA0346002B15D07B6840
:10158000D3E914014FF00002314BFFF70FFA034685
:10159000002B0AD03049D7E90623C1E90623796830
:1015A000D7E90623C1E9142316E07B68D3E90C23AD
:1015B000D7E90A01CDE90201CDE90023D7E90623E5
:1015C0002548FFF7B7FC03461846FEF713FF02460F
:1015D0000B467968C1E914237B68D3E9142390464C
:1015E00023F000494FF000021A4B40464946FFF7EE
:1015F000FBF90346002B08D07B68D3E90A23144685
:1016000083F000457B68C3E90A457B68D3E90A2378
:10161000D7E90A01CDE90201CDE90023D7E90E237C
:101620000E48FFF787FC03461846FEF7E3FE024626
:101630000B467968C1E9122300BF4037BD46BDE8BB
:10164000B08F00BFAFF30080F8C1631ADCA54C4037
:10165000008056C000805640480000200000002056
:1016600080B500AF00F086F900F018F800F08AF8B5
:1016700000F05AF800BFFFF7B5FD0346012BFAD082
:101680004FF47A7000F0D8F90348FFF701FE6420A8
:1016900000F0D2F9F8E700BF7801002080B590B0E3
:1016A00000AF07F1180328220021184602F0A6F81F
:1016B0003B1D00221A605A609A60DA601A610123A9
:1016C000BB614FF48033FB6100233B620123BB62AB
:1016D00002237B634FF48033BB634FF4E013FB635F
:1016E00007F11803184601F08DFC0346002B01D0CA
:1016F00000F076F80F237B600223BB600023FB60C1
:101700004FF480633B6100237B613B1D022118463F
:1017100001F0FAFE0346002B01D000F061F800BF93
:101720004037BD4680BD000080B500AF124B134A64
:101730001A60114B124A5A600F4B00229A600E4BEE
:101740000022DA600C4B4FF480421A610A4B0022EF
:101750005A61094B00229A61074B0022DA61064B5D
:1017600000221A62044800F0F3FB0346002B01D06C
:1017700000F036F800BF80BD1C010020005400407E
:10178000A086010080B485B000AF144B9B69134A5A
:1017900043F020039361114B9B6903F02003FB602E
:1017A000FB680E4B9B690D4A43F0040393610B4B9E
:1017B0009B6903F00403BB60BB68084B9B69074A45
:1017C00043F008039361054B9B6903F008037B60BA
:1017D0007B6800BF1437BD4680BC704700100240D4
:1017E00080B400AF72B600BFFEE7000080B485B0E1
:1017F00000AF154B9B69144A43F001039361124BF0
:101800009B6903F00103BB60BB680F4BDB690E4AA9
:1018100043F08053D3610C4BDB6903F080537B6052
:101820007B680A4B5B68FB60FB6823F0E063FB604E
:10183000FB6843F00073FB60044AFB68536000BF21
:101840001437BD4680BC70470010024000000140C4
:1018500080B588B000AF786007F1100300221A60ED
:101860005A609A60DA607B681B68154A934223D1FC
:10187000144B9B69134A43F008039361114B9B6916
:1018800003F00803FB60FB68C0233B6112237B610C
:101890000323FB6107F1100319460B4800F0D4F94C
:1018A000084BDB69074A43F40013D361054BDB693E
:1018B00003F40013BB60BB6800BF2037BD4680BD8A
:1018C0000054004000100240000C014080B400AF02
:1018D000FEE780B400AFFEE780B400AFFEE780B45F
:1018E00000AFFEE780B400AFFEE780B400AF00BFFA
:1018F000BD4680BC704780B400AF00BFBD4680BC11
:10190000704780B400AF00BFBD4680BC704780B553
:1019100000AF00F075F800BF80BD80B400AF00BF1D
:10192000BD4680BC70470000FFF7F7FF0B480C492D
:101930000C4A002302E0D458C4500433C4188C422B
:10194000F9D3094A094C002301E013600432A24292
:10195000FBD301F061FFFFF783FE7047000000201A
:1019600000010020E03F0008000100200C030020DF
:10197000FEE7000080B500AF084B1B68074A43F044
:1019800010031360032000F02BF90F2000F008F87B
:10199000FFF72CFF0023184680BD00BF0020024047
:1019A00080B582B000AF7860124B1A68124B1B787A
:1019B00019464FF47A73B3FBF1F3B2FBF3F3184615
:1019C00000F035F90346002B01D001230EE07B68BF
:1019D0000F2B0AD8002279684FF0FF3000F00BF986
:1019E000064A7B681360002300E00123184608378D
:1019F000BD4680BD9000002098000020940000208B
:101A000080B400AF054B1B781A46054B1B68134486
:101A1000034A136000BFBD4680BC70479800002099
:101A2000D001002080B400AF024B1B681846BD46B1
:101A300080BC7047D001002080B584B000AF7860D2
:101A4000FFF7F0FFB8607B68FB60FB68B3F1FF3F16
:101A500005D00A4B1B781A46FB681344FB6000BF95
:101A6000FFF7E0FF0246BB68D31AFA689A42F7D83C
:101A700000BF00BF1037BD4680BD00BF98000020EA
:101A800080B485B000AF78607B6803F00703FB602B
:101A90000C4BDB68BB60BA684FF6FF031340BB60BA
:101AA000FB681A02BB68134343F0BF6343F400337F
:101AB000BB60044ABB68D36000BF1437BD4680BC1E
:101AC000704700BF00ED00E080B400AF044BDB685E
:101AD0001B0A03F007031846BD4680BC704700BFD1
:101AE00000ED00E080B483B000AF03463960FB71C5
:101AF00097F90730002B0ADB3B68DAB20C4997F9FB
:101B000007301201D2B20B4483F800230AE03B688D
:101B1000DAB20849FB7903F00F03043B1201D2B299
:101B20000B441A7600BF0C37BD4680BC704700BF1F
:101B300000E100E000ED00E080B489B000AFF860A3
:101B4000B9607A60FB6803F00703FB61FB69C3F1CE
:101B50000703042B28BF0423BB61FB690433062B56
:101B600002D9FB69033B00E000237B614FF0FF32A9
:101B7000BB6902FA03F3DA43BB681A407B699A40F7
:101B80004FF0FF317B6901FA03F3D9437B680B40C7
:101B9000134318462437BD4680BC704780B582B0D9
:101BA00000AF78607B68013BB3F1807F01D30123F4
:101BB0000FE00A4A7B68013B53600F214FF0FF3072
:101BC000FFF790FF054B00229A60044B07221A6032
:101BD000002318460837BD4680BD00BF10E000E076
:101BE00080B582B000AF78607868FFF749FF00BF2A
:101BF0000837BD4680BD80B586B000AF0346B960EA
:101C00007A60FB7300237B61FFF75EFF78617A687F
:101C1000B9687869FFF790FF024697F90F301146CF
:101C20001846FFF75FFF00BF1837BD4680BD80B57F
:101C300082B000AF78607868FFF7B0FF03461846BF
:101C40000837BD4680BD000080B48BB000AF78601F
:101C5000396000237B6200233B6269E101227B6AD9
:101C600002FA03F3FB613B681B68FA691340BB612E
:101C7000BA69FB699A4240F058813B685B689A4AAE
:101C800093425ED0984A934275D8984A934258D06E
:101C9000964A93426FD8964A934252D0944A9342BE
:101CA00069D8944A93424CD0924A934263D8924A5C
:101CB000934246D0904A93425DD8122B2AD8122BD9
:101CC00059D801A252F823F0431D00081D1D000839
:101CD0002F1D0008711D0008771D0008771D0008E2
:101CE000771D0008771D0008771D0008771D000884
:101CF000771D0008771D0008771D0008771D000874
:101D0000771D0008771D0008771D0008251D0008B5
:101D1000391D0008794A934213D02CE03B68DB68F8
:101D20003B6229E03B68DB6804333B6224E03B68AC
:101D3000DB6808333B621FE03B68DB680C333B62C7
:101D40001AE03B689B68002B02D104233B6213E03E
:101D50003B689B68012B05D108233B627B68FA69CD
:101D60001A6109E008233B627B68FA695A6103E063
:101D700000233B6200E000BFBB69FF2B01D87B68FA
:101D800001E07B6804337B61BB69FF2B02D87B6A6F
:101D90009B0002E07B6A083B9B003B617B691A6801
:101DA0000F213B6901FA03F3DB431A40396A3B69AF
:101DB00001FA03F31A437B691A603B685B6803F01E
:101DC0008053002B00F0B1804D4B9B694C4A43F08F
:101DD000010393614A4B9B6903F00103BB60BB683D
:101DE000484A7B6A9B08023352F82330FB607B6AC7
:101DF00003F003039B000F2202FA03F3DB43FA68AC
:101E00001340FB607B68404A934213D07B683F4A93
:101E100093420DD07B683E4A934207D07B683D4A8F
:101E2000934201D1032306E0042304E0022302E0ED
:101E3000012300E000237A6A02F00302920093403B
:101E4000FA681343FB602F497B6A9B080233FA68E8
:101E500041F823203B685B6803F48013002B06D015
:101E60002D4B9A682C49BB6913438B6006E02A4BC3
:101E70009A68BB69DB43284913408B603B685B6809
:101E800003F40013002B06D0234BDA682249BB6908
:101E90001343CB6006E0204BDA68BB69DB431E4985
:101EA0001340CB603B685B6803F40033002B06D023
:101EB000194B5A681849BB6913434B6006E0164B2F
:101EC0005A68BB69DB43144913404B603B685B684D
:101ED00003F48033002B21D00F4B1A680E49BB69E5
:101EE00013430B6021E000BF0000321000003110EE
:101EF000000022100000211000001210000011103C
:101F0000001002400000014000080140000C0140A8
:101F10000010014000140140000401400B4B1A68FE
:101F2000BB69DB43094913400B607B6A01337B6269
:101F30003B681A687B6A22FA03F3002B7FF48EAEAB
:101F400000BF00BF2C37BD4680BC70470004014075
:101F500080B584B000AF78607B68002B01D101238D
:101F60002BE17B6893F83D30DBB2002B06D17B6818
:101F7000002283F83C207868FFF76AFC7B68242203
:101F800083F83D207B681B681A687B681B6822F019
:101F900001021A607B681B681A687B681B6842F440
:101FA00000421A607B681B681A687B681B6822F411
:101FB00000421A6001F0F0FBF8607B685B68814AC0
:101FC000934207D8FB68804A934294BF01230023C1
:101FD000DBB206E0FB687D4A934294BF01230023F5
:101FE000DBB2002B01D00123E7E0FB68784AA2FBBB
:101FF00003239B0CBB607B681B685B6823F03F017D
:102000007B681B68BA680A435A607B681B681B6A56
:1020100023F03F017B685B686A4A934202D8BB6841
:10202000013309E0BB684FF4967202FB03F3694A7F
:10203000A2FB03239B0901337A6812680B431362E6
:102040007B681B68DB6923F44F4222F0FF027B6848
:102050005B685C498B4219D8FB68591E7B685B68DA
:102060005B00B1FBF3F3591C40F6FC730B40002BF3
:102070000AD0FB68591E7B685B685B00B1FBF3F319
:102080000133C3F30B0351E004234FE07B689B68EB
:10209000002B11D1FB68581E7B6859680B465B000A
:1020A0000B44B0FBF3F30133C3F30B03002B0CBF62
:1020B00001230023DBB212E0FB68581E7B685968DD
:1020C0000B469B000B4499000B44B0FBF3F3013328
:1020D000C3F30B03002B0CBF01230023DBB2002B47
:1020E00001D0012322E07B689B68002B0ED1FB68A6
:1020F000581E7B6859680B465B000B44B0FBF3F33A
:102100000133C3F30B0343F400430FE0FB68581E95
:102110007B6859680B469B000B4499000B44B0FB4D
:10212000F3F30133C3F30B0343F4404379680968C5
:102130001343CB617B681B681B6823F0C0017B687D
:10214000DA697B681B6A1A437B681B680A431A605A
:102150007B681B689B6823F4034323F0FF037A68C2
:1021600011697A68D26811437A6812680B439360E8
:102170007B681B68DB6823F0FF017B685A697B681A
:102180009B691A437B681B680A43DA607B681B689B
:102190001A687B681B6842F001021A607B680022A3
:1021A0001A647B68202283F83D207B6800221A6332
:1021B0007B68002283F83E20002318461037BD4676
:1021C00080BD00BFA08601007F841E00FF083D0087
:1021D00083DE1B43D34D621080B588B002AFF86038
:1021E000084611461A4603467B810B463B8113463F
:1021F000FB80FFF717FC7861FB6893F83D30DBB29A
:10220000202B40F0D9807B690093192301226D496E
:10221000F86800F0C1FC0346002B01D00223CCE09B
:10222000FB6893F83C30012B01D10223C5E0FB6829
:10223000012283F83C20FB681B681B6803F0010344
:10224000012B07D0FB681B681A68FB681B6842F00B
:1022500001021A60FB681B681A68FB681B6822F49D
:1022600000621A60FB68212283F83D20FB6840224F
:1022700083F83E20FB6800221A64FB683A6A5A62BF
:10228000FB68BA8C5A85FB685B8D9AB2FB681A852D
:10229000FB684D4ADA62F8883A8979897B6901934B
:1022A000BB6A00930346F86800F0F8FA0346002B77
:1022B00052D0012381E07A69B96AF86800F086FD9E
:1022C0000346002B0DD0FB681B6C042B07D1FB6869
:1022D0001B681A68FB681B6842F400721A600123CD
:1022E0006BE0FB685B6A1A78FB681B681A61FB6825
:1022F0005B6A5A1CFB685A62FB681B8D013B9AB2F1
:10230000FB681A85FB685B8D9BB2013B9AB2FB6848
:102310005A85FB681B685B6903F00403042B1BD11F
:10232000FB681B8D002B17D0FB685B6A1A78FB6873
:102330001B681A61FB685B6A5A1CFB685A62FB687F
:102340001B8D013B9AB2FB681A85FB685B8D9BB2C3
:10235000013B9AB2FB685A85FB681B8D002BAAD102
:102360007A69B96AF86800F079FD0346002B0DD050
:10237000FB681B6C042B07D1FB681B681A68FB68A1
:102380001B6842F400721A60012316E0FB681B68A8
:102390001A68FB681B6842F400721A60FB6820220E
:1023A00083F83D20FB68002283F83E20FB68002272
:1023B00083F83C20002300E0022318461837BD466E
:1023C00080BD00BF020010000000FFFF80B58CB090
:1023D00002AFF860084611461A4603467B810B4659
:1023E0003B811346FB8000233B62FFF71BFB7862B7
:1023F000FB6893F83D30DBB2202B40F044827B6ACF
:102400000093192301228249F86800F0C5FB0346B6
:10241000002B01D0022337E2FB6893F83C30012BFC
:1024200001D1022330E2FB68012283F83C20FB68E3
:102430001B681B6803F00103012B07D0FB681B68B6
:102440001A68FB681B6842F001021A60FB681B688F
:102450001A68FB681B6822F400621A60FB6822227B
:1024600083F83D20FB68402283F83E20FB68002271
:102470001A64FB683A6B5A62FB68BA8E5A85FB682D
:102480005B8D9AB2FB681A85FB68624ADA62F8884B
:102490003A8979897B6A0193BB6B00930346F8689C
:1024A00000F092FA0346002B01D00123ECE1FB6817
:1024B0001B8D002B13D10023FB61FB681B685B693C
:1024C000FB61FB681B689B69FB61FB69FB681B6820
:1024D0001A68FB681B6842F400721A60C0E1FB686E
:1024E0001B8D012B1ED1FB681B681A68FB681B68DB
:1024F00022F480621A6072B600BF0023BB61FB68E1
:102500001B685B69BB61FB681B689B69BB61BB693E
:10251000FB681B681A68FB681B6842F400721A604B
:1025200062B635E0FB681B8D022B1ED1FB681B6871
:102530001A68FB681B6842F400621A6072B600BF3A
:1025400000237B61FB681B685B697B61FB681B6820
:102550009B697B617B69FB681B681A68FB681B6869
:1025600022F480621A6062B612E0FB681B681A6887
:10257000FB681B6842F480621A6000233B61FB68C1
:102580001B685B693B61FB681B689B693B613B693E
:1025900066E1FB681B8D032B00F21F81FB681B8D1E
:1025A000012B23D17A6AB96BF86800F09FFC0346CF
:1025B000002B01D0012367E1FB681B681A69FB68E7
:1025C0005B6AD2B21A70FB685B6A5A1CFB685A627B
:1025D000FB681B8D013B9AB2FB681A85FB685B8D1B
:1025E0009BB2013B9AB2FB685A8539E1FB681B8DAF
:1025F000022B52D17B6A0093BB6B00220649F8681C
:1026000000F0CAFA0346002B08D001233CE100BFCA
:10261000020010000000FFFF0400010072B600BFBE
:10262000FB681B681A68FB681B6842F400721A603A
:10263000FB681B681A69FB685B6AD2B21A70FB6898
:102640005B6A5A1CFB685A62FB681B8D013B9AB29D
:10265000FB681A85FB685B8D9BB2013B9AB2FB68F5
:102660005A8562B600BFFB681B681A69FB685B6A23
:10267000D2B21A70FB685B6A5A1CFB685A62FB682C
:102680001B8D013B9AB2FB681A85FB685B8D9BB280
:10269000013B9AB2FB685A85E2E07B6A0093BB6B10
:1026A00000227B49F86800F077FA0346002B01D03E
:1026B0000123E9E0FB681B681A68FB681B6822F4C9
:1026C00080621A6072B600BFFB681B681A69FB68FB
:1026D0005B6AD2B21A70FB685B6A5A1CFB685A626A
:1026E000FB681B8D013B9AB2FB681A85FB685B8D0A
:1026F0009BB2013B9AB2FB685A85664B1B68DB08AC
:10270000654AA2FB03231A0A13469B001344DA000E
:10271000D31A3B623B6A013B3B623B6A002B18D1F8
:10272000FB6800221A63FB68202283F83D20FB68C7
:10273000002283F83E20FB681B6C43F02002FB68FC
:102740001A6462B600BFFB68002283F83C200123B4
:102750009AE0FB681B685B6903F00403042BD9D182
:10276000FB681B681A68FB681B6842F400721A60F9
:10277000FB681B681A69FB685B6AD2B21A70FB6857
:102780005B6A5A1CFB685A62FB681B8D013B9AB25C
:10279000FB681A85FB685B8D9BB2013B9AB2FB68B4
:1027A0005A8562B600BFFB681B681A69FB685B6AE2
:1027B000D2B21A70FB685B6A5A1CFB685A62FB68EB
:1027C0001B8D013B9AB2FB681A85FB685B8D9BB23F
:1027D000013B9AB2FB685A8542E07A6AB96BF868A5
:1027E00000F084FB0346002B01D001234CE0FB6882
:1027F0001B681A69FB685B6AD2B21A70FB685B6A75
:102800005A1CFB685A62FB681B8D013B9AB2FB683D
:102810001A85FB685B8D9BB2013B9AB2FB685A85B7
:10282000FB681B685B6903F00403042B18D1FB6889
:102830001B681A69FB685B6AD2B21A70FB685B6A34
:102840005A1CFB685A62FB681B8D013B9AB2FB68FD
:102850001A85FB685B8D9BB2013B9AB2FB685A8577
:10286000FB681B8D002B7FF494AEFB68202283F85D
:102870003D20FB68002283F83E20FB68002283F89D
:102880003C20002300E0022318462837BD4680BDC7
:10289000040001009000002089B5F81480B588B0CC
:1028A00002AFF860084611461A4603467B810B4684
:1028B0003B811346FB80FB681B681A68FB681B683A
:1028C00042F480721A607B6A00933B6A00224FF0E8
:1028D0000111F86800F060F90346002B0DD0FB6889
:1028E0001B681B6803F48073B3F5807F03D1FB681A
:1028F0004FF400721A6403235FE07B89DBB21A464F
:10290000FB681B6802F0FE021A617B6A3A6A2D4975
:10291000F86800F0BBF90346002B01D001234CE01E
:1029200000237B61FB681B685B697B61FB681B683C
:102930009B697B617B697A6A396AF86800F046FABC
:102940000346002B0DD0FB681B6C042B07D1FB68E2
:102950001B681A68FB681B6842F400721A60012346
:102960002BE0FB88012B05D13B89DAB2FB681B68A1
:102970001A6121E03B891B0A9BB2DAB2FB681B6833
:102980001A617A6A396AF86800F020FA0346002B67
:102990000DD0FB681B6C042B07D1FB681B681A6801
:1029A000FB681B6842F400721A60012305E03B8952
:1029B000DAB2FB681B681A61002318461837BD4657
:1029C00080BD00BF0200010080B588B002AFF86092
:1029D000084611461A4603467B810B463B81134647
:1029E000FB80FB681B681A68FB681B6842F4806206
:1029F0001A60FB681B681A68FB681B6842F48072E7
:102A00001A607B6A00933B6A00224FF00111F8685C
:102A100000F0C2F80346002B0DD0FB681B681B6852
:102A200003F48073B3F5807F03D1FB684FF4007229
:102A30001A640323AAE07B89DBB21A46FB681B6891
:102A400002F0FE021A617B6A3A6A5249F86800F0A5
:102A50001DF90346002B01D0012397E000237B6181
:102A6000FB681B685B697B61FB681B689B697B611A
:102A70007B697A6A396AF86800F0A8F90346002B86
:102A80000DD0FB681B6C042B07D1FB681B681A6810
:102A9000FB681B6842F400721A60012376E0FB8831
:102AA000012B05D13B89DAB2FB681B681A6121E072
:102AB0003B891B0A9BB2DAB2FB681B681A617A6A0F
:102AC000396AF86800F082F90346002B0DD0FB68E4
:102AD0001B6C042B07D1FB681B681A68FB681B681A
:102AE00042F400721A60012350E03B89DAB2FB68BD
:102AF0001B681A617A6A396AF86800F067F9034658
:102B0000002B0DD0FB681B6C042B07D1FB681B68E6
:102B10001A68FB681B6842F400721A60012335E0F2
:102B2000FB681B681A68FB681B6842F480721A60B5
:102B30007B6A00933B6A00224FF00111F86800F0B5
:102B40002BF80346002B0DD0FB681B681B6803F4B1
:102B50008073B3F5807F03D1FB684FF400721A6471
:102B6000032313E07B89DBB243F00103DAB2FB6895
:102B70001B681A617B6A3A6A0649F86800F086F8B1
:102B80000346002B01D0012300E00023184618372C
:102B9000BD4680BD0200010080B584B000AFF86082
:102BA000B9603B601346FB7148E03B68B3F1FF3FFF
:102BB00044D0FEF737FF0246BB69D31A3A689A42FF
:102BC00002D33B68002B39D1BB681B0CDBB2012B55
:102BD0000DD1FB681B685B69DA43BB6813409BB28D
:102BE000002B0CBF01230023DBB21A460CE0FB686C
:102BF0001B689B69DA43BB6813409BB2002B0CBF78
:102C000001230023DBB21A46FB799A4216D1FB68F6
:102C100000221A63FB68202283F83D20FB68002213
:102C200083F83E20FB681B6C43F02002FB681A64AB
:102C3000FB68002283F83C20012323E0BB681B0CC7
:102C4000DBB2012B0DD1FB681B685B69DA43BB6803
:102C500013409BB2002B0CBF01230023DBB21A46AA
:102C60000CE0FB681B689B69DA43BB6813409BB2AE
:102C7000002B0CBF01230023DBB21A46FB799A42DA
:102C800093D0002318461037BD4680BD80B584B070
:102C900000AFF860B9607A603B6071E0FB681B6868
:102CA0005B6903F48063B3F5806F23D1FB681B6815
:102CB0001A68FB681B6842F400721A60FB681B68A4
:102CC0006FF480625A61FB6800221A63FB6820225D
:102CD00083F83D20FB68002283F83E20FB681B6CD4
:102CE00043F00402FB681A64FB68002283F83C206E
:102CF000012367E07B68B3F1FF3F41D0FEF792FE0E
:102D000002463B68D31A7A689A4202D37B68002B4A
:102D100036D1BB681B0CDBB2012B0CD1FB681B68E6
:102D20005B69DA43BB6813409BB2002B14BF0123DD
:102D30000023DBB20BE0FB681B689B69DA43BB68CE
:102D400013409BB2002B14BF01230023DBB2002BE6
:102D500016D0FB6800221A63FB68202283F83D200E
:102D6000FB68002283F83E20FB681B6C43F02002C6
:102D7000FB681A64FB68002283F83C20012321E0F1
:102D8000BB681B0CDBB2012B0CD1FB681B685B69B9
:102D9000DA43BB6813409BB2002B14BF012300230E
:102DA000DBB20BE0FB681B689B69DA43BB6813402E
:102DB0009BB2002B14BF01230023DBB2002B7FF456
:102DC0006DAF002318461037BD4680BD80B584B076
:102DD00000AFF860B9607A6034E0F86800F0E3F8BA
:102DE0000346002B01D0012334E0BB68B3F1FF3F61
:102DF00028D0FEF717FE02467B68D31ABA689A42BB
:102E000002D3BB68002B1DD1FB681B685B6903F014
:102E10008003802B16D0FB6800221A63FB682022F7
:102E200083F83D20FB68002283F83E20FB681B6C82
:102E300043F02002FB681A64FB68002283F83C2000
:102E4000012307E0FB681B685B6903F08003802BAC
:102E5000C3D1002318461037BD4680BD80B584B06D
:102E600000AFF860B9607A6034E0F86800F09BF871
:102E70000346002B01D0012334E0BB68B3F1FF3FD0
:102E800028D0FEF7CFFD02467B68D31ABA689A4273
:102E900002D3BB68002B1DD1FB681B685B6903F084
:102EA0000403042B16D0FB6800221A63FB6820225F
:102EB00083F83D20FB68002283F83E20FB681B6CF2
:102EC00043F02002FB681A64FB68002283F83C2070
:102ED000012307E0FB681B685B6903F00403042B14
:102EE000C3D1002318461037BD4680BD80B584B0DD
:102EF00000AFF860B9607A6049E0FB681B685B6905
:102F000003F01003102B19D1FB681B686FF010023F
:102F10005A61FB6800221A63FB68202283F83D2077
:102F2000FB68002283F83E20FB681A6CFB681A6479
:102F3000FB68002283F83C20012330E0FEF772FD9D
:102F400002467B68D31ABA689A4202D3BB68002B48
:102F50001DD1FB681B685B6903F04003402B16D052
:102F6000FB6800221A63FB68202283F83D20FB687F
:102F7000002283F83E20FB681B6C43F02002FB68B4
:102F80001A64FB68002283F83C20012307E0FB68F9
:102F90001B685B6903F04003402BAED10023184649
:102FA0001037BD4680BD80B483B000AF78607B68C9
:102FB0001B685B6903F48063B3F5806F1BD17B688A
:102FC0001B686FF480625A617B6800221A637B6819
:102FD000202283F83D207B68002283F83E207B6816
:102FE0001B6C43F004027B681A647B68002283F840
:102FF0003C20012300E0002318460C37BD4680BC6E
:103000007047000080B586B000AF78607B68002B09
:1030100001D1012372E27B681B6803F00103002BDE
:1030200000F08780924B5B6803F00C03042B0CD0FC
:103030008F4B5B6803F00C03082B12D18C4B5B6841
:1030400003F48033B3F5803F0BD1894B1B6803F445
:103050000033002B6CD07B685B68002B68D10123A8
:103060004CE27B685B68B3F5803F06D1804B1B6800
:103070007F4A43F4803313602EE07B685B68002B4B
:103080000CD17B4B1B687A4A23F480331360784B56
:103090001B68774A23F4802313601DE07B685B681C
:1030A000B3F5A02F0CD1724B1B68714A43F48023F7
:1030B00013606F4B1B686E4A43F4803313600BE060
:1030C0006B4B1B686A4A23F480331360684B1B68A0
:1030D000674A23F4802313607B685B68002B13D05E
:1030E000FEF7A0FC386108E0FEF79CFC02463B6955
:1030F000D31A642B01D9032300E25D4B1B6803F450
:103100000033002BF0D014E0FEF78CFC386108E0AF
:10311000FEF788FC02463B69D31A642B01D90323CE
:10312000ECE1534B1B6803F40033002BF0D100E0BB
:1031300000BF7B681B6803F00203002B63D04C4B7D
:103140005B6803F00C03002B0BD0494B5B6803F06A
:103150000C03082B1CD1464B5B6803F48033002B17
:1031600016D1434B1B6803F00203002B05D07B688C
:103170001B69012B01D00123C0E13D4B1B6823F0EB
:10318000F8027B685B69DB00394913430B603AE066
:103190007B681B69002B20D0364B01221A60FEF79A
:1031A00041FC386108E0FEF73DFC02463B69D31A5A
:1031B000022B01D90323A1E12D4B1B6803F002036D
:1031C000002BF0D02A4B1B6823F0F8027B685B6968
:1031D000DB00274913430B6015E0264B00221A60E1
:1031E000FEF720FC386108E0FEF71CFC02463B6954
:1031F000D31A022B01D9032380E11D4B1B6803F076
:103200000203002BF0D17B681B6803F00803002B3E
:103210003AD07B689B69002B19D0174B01221A60AA
:10322000FEF700FC386108E0FEF7FCFB02463B6954
:10323000D31A022B01D9032360E10D4B5B6A03F023
:103240000203002BF0D0012000F0BAFA1CE00A4B78
:1032500000221A60FEF7E6FB38610FE0FEF7E2FBA2
:1032600002463B69D31A022B08D9032346E100BF6B
:10327000001002400000424280044242924B5B6ACE
:1032800003F00203002BE9D17B681B6803F0040301
:10329000002B00F0A6800023FB758B4BDB6903F04D
:1032A0008053002B0DD1884BDB69874A43F0805354
:1032B000D361854BDB6903F08053BB60BB6801239E
:1032C000FB75824B1B6803F48073002B18D17F4B76
:1032D0001B687E4A43F480731360FEF7A3FB3861DA
:1032E00008E0FEF79FFB02463B69D31A642B01D925
:1032F000032303E1754B1B6803F48073002BF0D0AC
:103300007B68DB68012B06D16F4B1B6A6E4A43F06A
:10331000010313622DE07B68DB68002B0CD16A4B44
:103320001B6A694A23F001031362674B1B6A664AF2
:1033300023F0040313621CE07B68DB68052B0CD1CF
:10334000614B1B6A604A43F0040313625E4B1B6AC5
:103350005D4A43F0010313620BE05B4B1B6A5A4A60
:1033600023F001031362584B1B6A574A23F00403EE
:1033700013627B68DB68002B15D0FEF753FB3861C6
:103380000AE0FEF74FFB02463B69D31A41F288324E
:10339000934201D90323B1E04B4B1B6A03F00203B4
:1033A000002BEED014E0FEF73DFB38610AE0FEF79B
:1033B00039FB02463B69D31A41F28832934201D964
:1033C00003239BE0404B1B6A03F00203002BEED16A
:1033D000FB7D012B05D13C4BDB693B4A23F080533D
:1033E000D3617B68DB69002B00F08780364B5B681C
:1033F00003F00C03082B61D07B68DB69022B46D1FC
:10340000334B00221A60FEF70DFB386108E0FEF72F
:1034100009FB02463B69D31A022B01D903236DE055
:10342000294B1B6803F00073002BF0D17B681B6AEB
:10343000B3F5803F08D1244B5B6823F400327B68EE
:103440009B68214913434B601F4B5B6823F4741244
:103450007B68196A7B685B6A0B431B4913434B60AB
:103460001B4B01221A60FEF7DDFA386108E0FEF717
:10347000D9FA02463B69D31A022B01D903233DE056
:10348000114B1B6803F00073002BF0D035E0104B9C
:1034900000221A60FEF7C6FA386108E0FEF7C2FAA9
:1034A00002463B69D31A022B01D9032326E0064BBF
:1034B0001B6803F00073002BF0D11EE07B68DB6912
:1034C000012B07D1012319E00010024000700040D9
:1034D000600042420B4B5B68FB60FB6803F4803288
:1034E0007B681B6A9A4206D1FB6803F470127B6802
:1034F0005B6A9A4201D0012300E000231846183786
:10350000BD4680BD0010024080B584B000AF786039
:1035100039607B68002B01D10123D0E06A4B1B6826
:1035200003F007033A689A4210D9674B1B6823F0EF
:10353000070265493B6813430B60634B1B6803F04C
:1035400007033A689A4201D00123B8E07B681B6800
:1035500003F00203002B20D07B681B6803F00403F8
:10356000002B05D0594B5B68584A43F4E063536025
:103570007B681B6803F00803002B05D0534B5B6886
:10358000524A43F460535360504B5B6823F0F0029F
:103590007B689B684D4913434B607B681B6803F055
:1035A0000103002B40D07B685B68012B07D1474BA0
:1035B0001B6803F40033002B15D101237FE07B68E7
:1035C0005B68022B07D1414B1B6803F00073002B93
:1035D00009D1012373E03D4B1B6803F00203002B6C
:1035E00001D101236BE0394B5B6823F003027B6858
:1035F0005B68364913434B60FEF714FAF8600AE043
:10360000FEF710FA0246FB68D31A41F28832934261
:1036100001D9032353E02D4B5B6803F00C027B6858
:103620005B689B009A42EBD1274B1B6803F00703B2
:103630003A689A4210D2244B1B6823F007022249B1
:103640003B6813430B60204B1B6803F007033A6889
:103650009A4201D0012332E07B681B6803F0040327
:10366000002B08D0194B5B6823F4E0627B68DB68B1
:10367000164913434B607B681B6803F00803002B5B
:1036800009D0124B5B6823F460527B681B69DB0036
:103690000E4913434B6000F021F802460B4B5B6868
:1036A0001B0903F00F030A49CB5C22FA03F3094A12
:1036B0001360094B1B681846FEF772F90023184681
:1036C0001037BD4680BD00BF002002400010024000
:1036D000383F0008900000209400002080B487B09C
:1036E00000AF0023FB600023BB6000237B6100234D
:1036F0007B6000233B611E4B5B68FB60FB6803F053
:103700000C03042B02D0082B03D027E0194B3B619C
:1037100027E0FB689B0C03F00F03174AD35C7B6028
:10372000FB6803F48033002B10D0114B5B685B0CFB
:1037300003F00103114AD35CBB607B680D4A03FBB5
:1037400002F2BB68B2FBF3F37B6104E07B680C4AD6
:1037500002FB03F37B617B693B6102E0054B3B614C
:1037600000BF3B6918461C37BD4680BC704700BF90
:103770000010024000127A00503F0008603F00082D
:1037800000093D0080B400AF024B1B681846BD46DF
:1037900080BC70479000002080B500AFFFF7F2FFBB
:1037A0000246054B5B681B0A03F007030349CB5C29
:1037B00022FA03F3184680BD00100240483F00087B
:1037C00080B485B000AF78600A4B1B680A4AA2FB40
:1037D00003235B0A7A6802FB03F3FB6000BFFB680C
:1037E0005A1EFA60002BF9D100BF00BF1437BD4646
:1037F00080BC704790000020D34D62100346024405
:10380000934200D1704703F8011BF9E7014B186898
:10381000704700BFE800002070B500260C4D0D4C2D
:10382000641BA410A64209D100F078FB00260A4DC3
:103830000A4C641BA410A64205D170BD55F8043B88
:1038400098470136EEE755F8043B98470136F2E712
:10385000D83F0008D83F0008D83F0008DC3F0008E8
:1038600000F08EBAF8B506460F4600F0AFF93246C2
:1038700004460D463B4630463946FDF7BFF890B941
:103880000022002330463946FDF790F858B1FFF783
:10389000BDFF212300220360002310461946FCF7D8
:1038A0003DFF04460D4620462946F8BD00000000B5
:1038B0002DE9F84FB64B21F000469E4204460D46D6
:1038C0008B4617DDB34B9E4201DC09D140B1224645
:1038D0002B4620462946FCF741FC04460D4605E0F0
:1038E000BBF1000FAC4C00F32181AC4D20462946C2
:1038F000BDE8F88FAA4B9E4211DCA3F1DE739E4215
:103900000ADC8BA3D3E90023FCF728FC0022A54B9B
:10391000FDF76AF80028E9D14FF0FF3A27E000F000
:1039200051F9A14B04469E420D4600F3B880A3F521
:1039300050239E4200F39C8002460B46FCF70EFC8F
:103940000022984BFCF708FC002206460F464FF079
:10395000804320462946FCF701FC02460B463046D0
:103960003946FCF7DBFE4FF0000A04460D462246BE
:103970002B4620462946FCF7A7FD02460B4680460B
:103980008946FCF7A1FD6CA3D3E9002306460F4648
:10399000FCF79AFD6AA3D3E90023FCF7DFFB32466C
:1039A0003B46FCF791FD68A3D3E90023FCF7D6FB67
:1039B00032463B46FCF788FD65A3D3E90023FCF7BC
:1039C000CDFB32463B46FCF77FFD63A3D3E90023E2
:1039D000FCF7C4FB32463B46FCF776FD60A3D3E917
:1039E0000023FCF7BBFB42464B46FCF76DFD5EA394
:1039F000D3E900238046894630463946FCF764FD0A
:103A00005BA3D3E90023FCF7A7FB32463B46FCF758
:103A10005BFD59A3D3E90023FCF79EFB32463B46EE
:103A2000FCF752FD56A3D3E90023FCF795FB324681
:103A30003B46FCF749FD54A3D3E90023FCF78CFB7C
:103A400032463B46FCF740FD02460B46404649469F
:103A5000FCF784FB22462B46FCF736FDBAF1FF3F0C
:103A600002460B4644D120462946FCF775FB34E755
:103A700000224C4BFCF770FB002206460F46204606
:103A80002946484BFCF76AFB02460B46304639464E
:103A9000FCF744FE4FF0010A04460D4667E7434B2E
:103AA0009E421ADA0022424BFCF756FB00220646E1
:103AB0000F46204629463E4BFCF706FD0022394BB7
:103AC000FCF74CFB02460B4630463946FCF726FE17
:103AD0004FF0020A04460D4649E702460B46002015
:103AE0003449FCF71BFE4FF0030A04460D463EE73F
:103AF000314B324E03EBCA03D3E90023FCF72CFB16
:103B000022462B46FCF728FB06EBCA0602460B466C
:103B1000D6E90001FCF720FBBBF1000F04460D467F
:103B2000BFF6E4AE01F100431D46DFE6244DDDE6BD
:103B30009C7500883CE4377E11DA22E33AAD903F71
:103B4000EB0D76244B7BA93F513DD0A0660DB13FD4
:103B50006E204CC5CD45B73FFF8300922449C23F3C
:103B60000D5555555555D53F2F6C6A2C44B4A2BF01
:103B70009AFDDE522DDEAD3F6D9A74AFF2B0B33FC9
:103B8000711623FEC671BC3FC4EB98999999C93F41
:103B9000FFFF0F440000F07F182D4454FB21F9BFB4
:103BA000FFFFDB3F0000F03FFFFFF23F00800340DC
:103BB0000000F83F0000F0BF883F0008683F0008A1
:103BC000FB21F93F21F0004319467047DFF8A0C1FF
:103BD0002DE9F84F3CEA010C0B4606460D460A4615
:103BE00004460ED10246FCF76FFC02460B463046F7
:103BF0002946FCF7B3FA06460D4630462946BDE88D
:103C0000F88F00290DDC21F0004C5CEA000CF4D0A8
:103C100039B10246FCF7A0FA02460B46FCF77EFDDE
:103C2000E9E7121500F089800025C3F31303A2F21F
:103C3000FF3643F48013D2075CBF5B0003EBD47301
:103C40004FEA430358BF640003EBD47362001620AD
:103C500029464FF4001476100F199F42DEBFDB1B7C
:103C600039192D195B00013803EBD2734FEA540464
:103C70004FEA4202F0D1044620274FF0004C8B421D
:103C80000CEB000E02DC13D1964511D8BEF1000FEB
:103C90000EEB0C0056DA002854DB01F101085B1A28
:103CA0004146964588BF03F1FF33A2EB0E02644400
:103CB0005B00013F03EBD2734FEA5C0C4FEA420218
:103CC000DDD113431BD0DFF8ACA0DFF8ACB0DAE9EC
:103CD0000001DBE90023FCF73FFADAE9008902463C
:103CE0000B4640464946FCF76BFE40B1DAE900015D
:103CF000DBE90023B4F1FF3F26D13C4601356B10D0
:103D0000640803F17F53EA0703F5001348BF44F04A
:103D10000044204603EB06516DE7E30A15396405BC
:103D2000002BFAD0D8020AD5C2F1200024FA00F004
:103D3000551E944003434A1B76E71146F0E75B00AB
:103D40000132EFE78846AAE7FCF708FADAE90089CA
:103D500002460B4640464946FCF728FE20B1A11C0E
:103D600008BF01350234CAE7013424F00104C6E774
:103D70000000F07FF0000020F800002000000000AC
:103D80002DE9F84F17469246994623F000427B42B0
:103D9000DFF87C813B4342EAD373434504460D463A
:103DA00009D8464221F00043064343EAD676464509
:103DB0008E46834608D952464B4620462946FCF794
:103DC000CDF904460D4619E009F1404606F5801686
:103DD0003E4303D1BDE8F84FFFF76ABD4FEAA9762D
:103DE00006F0020653EA0B0B46EAD1760AD1022E00
:103DF00067D0032E02D13AA5D5E9004520462946D1
:103E0000BDE8F88F174306D1BEF1000F64DA36A57E
:103E1000D5E90045F2E742450FD1934206F1FF365E
:103E200007D1022E51D83B4B03EBC603D3E9004523
:103E3000E4E7022E4DD8384BF6E74345E4D09B1A11
:103E4000B3F1747F4FEA235221DAB9F1000F01DA9E
:103E50003C3220DB52464B4620462946FCF75EFCAE
:103E6000FFF7B0FEFFF724FD04460D46012E15D0E6
:103E7000022E17D0002EC1D01DA3D3E90023204667
:103E80002946FCF769F91CA3D3E9002316E01CA519
:103E9000D5E90045EAE700240025E7E705F10043FE
:103EA0001D46ABE712A3D3E9002320462946FCF7C1
:103EB00053F902460B4610A1D1E90001FCF74CF979
:103EC0007FE70DA5D5E9004598E70FA5D5E90045A1
:103ED00094E70024002591E709A5D5E900458DE781
:103EE000182D4454FB2109C0182D4454FB21F9BF5F
:103EF000075C143326A6A13C182D4454FB2109402D
:103F0000182D4454FB21F93F182D4454FB21E93F5F
:103F10000000F07FA83F0008C03F0008F8B500BFD0
:103F2000F8BC08BC9E467047F8B500BFF8BC08BC9A
:043F30009E467047F2
:103F38000000000000000000010203040607080951
:103F48000000000001020304020304050607080933
:103F58000A0B0C0D0E0F10100102000000000000EB
:103F68004FBB610567ACDD3F182D4454FB21E93F89
:103F78009BF681D20B73EF3F182D4454FB21F93F78
:103F8800E2652F227F2B7A3C075C143326A6813CFE
:103F9800BDCBF07A8807703C075C143326A6913CA9
:103FA800182D4454FB21E9BFD221337F7CD902402C
:103FB800D221337F7CD902C00000000000000080BD
:103FC800182D4454FB210940182D4454FB2109C0E5
:043FD80035010008A7
:043FDC0011010008C7
:103FE000000000E04D62503F000000C07493683F45
:103FF000000000E051B89E3F0000000000000000FB
:1040000000000000000000000000000000000000B0
:1040100000000000000000000000000000000000A0
:104020000000000000000000000000E04D62503F72
:10403000000000C07493683F000000E051B89E3F4C
:104040000000000000000000000000000000000070
:104050000000000000000000000000000000000060
:104060000000000000000000000000000000000050
:104070000024F40010000000010000000000000017
:10408000D40100203C020020A40200200000000017
:104090000000000000000000000000000000000020
:1040A0000000000000000000000000000000000010
:1040B0000000000000000000000000000000000000
:1040C00000000000000000009C0000200000000034
:1040D000000000000000F03F59F3F8C21F6EA50178
:0400000508001929AD
:00000001FF
